{"abi":[{"type":"constructor","inputs":[],"stateMutability":"nonpayable"},{"type":"function","name":"approve","inputs":[{"name":"to","type":"address","internalType":"address"},{"name":"tokenId","type":"uint256","internalType":"uint256"}],"outputs":[],"stateMutability":"nonpayable"},{"type":"function","name":"balanceOf","inputs":[{"name":"owner","type":"address","internalType":"address"}],"outputs":[{"name":"","type":"uint256","internalType":"uint256"}],"stateMutability":"view"},{"type":"function","name":"buyTicket","inputs":[],"outputs":[],"stateMutability":"nonpayable"},{"type":"function","name":"cancelTicket","inputs":[{"name":"tokenId","type":"uint256","internalType":"uint256"}],"outputs":[],"stateMutability":"nonpayable"},{"type":"function","name":"getApproved","inputs":[{"name":"tokenId","type":"uint256","internalType":"uint256"}],"outputs":[{"name":"","type":"address","internalType":"address"}],"stateMutability":"view"},{"type":"function","name":"getMyTickets","inputs":[],"outputs":[{"name":"","type":"uint256[]","internalType":"uint256[]"}],"stateMutability":"view"},{"type":"function","name":"isApprovedForAll","inputs":[{"name":"owner","type":"address","internalType":"address"},{"name":"operator","type":"address","internalType":"address"}],"outputs":[{"name":"","type":"bool","internalType":"bool"}],"stateMutability":"view"},{"type":"function","name":"isMyTicket","inputs":[{"name":"tokenId","type":"uint256","internalType":"uint256"}],"outputs":[{"name":"","type":"bool","internalType":"bool"}],"stateMutability":"view"},{"type":"function","name":"name","inputs":[],"outputs":[{"name":"","type":"string","internalType":"string"}],"stateMutability":"view"},{"type":"function","name":"owner","inputs":[],"outputs":[{"name":"","type":"address","internalType":"address"}],"stateMutability":"view"},{"type":"function","name":"ownerOf","inputs":[{"name":"tokenId","type":"uint256","internalType":"uint256"}],"outputs":[{"name":"","type":"address","internalType":"address"}],"stateMutability":"view"},{"type":"function","name":"renounceOwnership","inputs":[],"outputs":[],"stateMutability":"nonpayable"},{"type":"function","name":"safeTransferFrom","inputs":[{"name":"from","type":"address","internalType":"address"},{"name":"to","type":"address","internalType":"address"},{"name":"tokenId","type":"uint256","internalType":"uint256"}],"outputs":[],"stateMutability":"nonpayable"},{"type":"function","name":"safeTransferFrom","inputs":[{"name":"from","type":"address","internalType":"address"},{"name":"to","type":"address","internalType":"address"},{"name":"tokenId","type":"uint256","internalType":"uint256"},{"name":"data","type":"bytes","internalType":"bytes"}],"outputs":[],"stateMutability":"nonpayable"},{"type":"function","name":"setApprovalForAll","inputs":[{"name":"operator","type":"address","internalType":"address"},{"name":"approved","type":"bool","internalType":"bool"}],"outputs":[],"stateMutability":"nonpayable"},{"type":"function","name":"supportsInterface","inputs":[{"name":"interfaceId","type":"bytes4","internalType":"bytes4"}],"outputs":[{"name":"","type":"bool","internalType":"bool"}],"stateMutability":"view"},{"type":"function","name":"symbol","inputs":[],"outputs":[{"name":"","type":"string","internalType":"string"}],"stateMutability":"view"},{"type":"function","name":"tokenURI","inputs":[{"name":"tokenId","type":"uint256","internalType":"uint256"}],"outputs":[{"name":"","type":"string","internalType":"string"}],"stateMutability":"view"},{"type":"function","name":"transferFrom","inputs":[{"name":"from","type":"address","internalType":"address"},{"name":"to","type":"address","internalType":"address"},{"name":"tokenId","type":"uint256","internalType":"uint256"}],"outputs":[],"stateMutability":"nonpayable"},{"type":"function","name":"transferOwnership","inputs":[{"name":"newOwner","type":"address","internalType":"address"}],"outputs":[],"stateMutability":"nonpayable"},{"type":"event","name":"Approval","inputs":[{"name":"owner","type":"address","indexed":true,"internalType":"address"},{"name":"approved","type":"address","indexed":true,"internalType":"address"},{"name":"tokenId","type":"uint256","indexed":true,"internalType":"uint256"}],"anonymous":false},{"type":"event","name":"ApprovalForAll","inputs":[{"name":"owner","type":"address","indexed":true,"internalType":"address"},{"name":"operator","type":"address","indexed":true,"internalType":"address"},{"name":"approved","type":"bool","indexed":false,"internalType":"bool"}],"anonymous":false},{"type":"event","name":"OwnershipTransferred","inputs":[{"name":"previousOwner","type":"address","indexed":true,"internalType":"address"},{"name":"newOwner","type":"address","indexed":true,"internalType":"address"}],"anonymous":false},{"type":"event","name":"TicketBought","inputs":[{"name":"user","type":"address","indexed":true,"internalType":"address"},{"name":"tokenId","type":"uint256","indexed":false,"internalType":"uint256"}],"anonymous":false},{"type":"event","name":"TicketCancelled","inputs":[{"name":"user","type":"address","indexed":true,"internalType":"address"},{"name":"tokenId","type":"uint256","indexed":false,"internalType":"uint256"}],"anonymous":false},{"type":"event","name":"Transfer","inputs":[{"name":"from","type":"address","indexed":true,"internalType":"address"},{"name":"to","type":"address","indexed":true,"internalType":"address"},{"name":"tokenId","type":"uint256","indexed":true,"internalType":"uint256"}],"anonymous":false},{"type":"error","name":"ERC721IncorrectOwner","inputs":[{"name":"sender","type":"address","internalType":"address"},{"name":"tokenId","type":"uint256","internalType":"uint256"},{"name":"owner","type":"address","internalType":"address"}]},{"type":"error","name":"ERC721InsufficientApproval","inputs":[{"name":"operator","type":"address","internalType":"address"},{"name":"tokenId","type":"uint256","internalType":"uint256"}]},{"type":"error","name":"ERC721InvalidApprover","inputs":[{"name":"approver","type":"address","internalType":"address"}]},{"type":"error","name":"ERC721InvalidOperator","inputs":[{"name":"operator","type":"address","internalType":"address"}]},{"type":"error","name":"ERC721InvalidOwner","inputs":[{"name":"owner","type":"address","internalType":"address"}]},{"type":"error","name":"ERC721InvalidReceiver","inputs":[{"name":"receiver","type":"address","internalType":"address"}]},{"type":"error","name":"ERC721InvalidSender","inputs":[{"name":"sender","type":"address","internalType":"address"}]},{"type":"error","name":"ERC721NonexistentToken","inputs":[{"name":"tokenId","type":"uint256","internalType":"uint256"}]},{"type":"error","name":"OwnableInvalidOwner","inputs":[{"name":"owner","type":"address","internalType":"address"}]},{"type":"error","name":"OwnableUnauthorizedAccount","inputs":[{"name":"account","type":"address","internalType":"address"}]}],"bytecode":{"object":"0x608060405234801561000f575f5ffd5b503360405180604001604052806009815260200168151a58dad95d13919560ba1b815250604051806040016040528060048152602001631513919560e21b815250815f908161005e9190610198565b50600161006b8282610198565b5050506001600160a01b03811661009b57604051631e4fbdf760e01b81525f600482015260240160405180910390fd5b6100a4816100af565b506001600755610252565b600680546001600160a01b038381166001600160a01b0319831681179093556040519116919082907f8be0079c531659141344cd1fd0a4f28419497f9722a3daafe3b4186f6b6457e0905f90a35050565b634e487b7160e01b5f52604160045260245ffd5b600181811c9082168061012857607f821691505b60208210810361014657634e487b7160e01b5f52602260045260245ffd5b50919050565b601f82111561019357805f5260205f20601f840160051c810160208510156101715750805b601f840160051c820191505b81811015610190575f815560010161017d565b50505b505050565b81516001600160401b038111156101b1576101b1610100565b6101c5816101bf8454610114565b8461014c565b6020601f8211600181146101f7575f83156101e05750848201515b5f19600385901b1c1916600184901b178455610190565b5f84815260208120601f198516915b828110156102265787850151825560209485019460019092019101610206565b508482101561024357868401515f19600387901b60f8161c191681555b50505050600190811b01905550565b6113378061025f5f395ff3fe608060405234801561000f575f5ffd5b5060043610610127575f3560e01c80638da5cb5b116100a9578063e1d10d851161006e578063e1d10d8514610286578063e985e9c51461029b578063edca914c146102ae578063ee355b1f146102b6578063f2fde38b146102c9575f5ffd5b80638da5cb5b1461023457806395d89b4114610245578063a22cb4651461024d578063b88d4fde14610260578063c87b56dd14610273575f5ffd5b806342842e0e116100ef57806342842e0e146101bb57806354b7ba0c146101ce5780636352211e146101f857806370a082311461020b578063715018a61461022c575f5ffd5b806301ffc9a71461012b57806306fdde0314610153578063081812fc14610168578063095ea7b31461019357806323b872dd146101a8575b5f5ffd5b61013e610139366004610f6a565b6102dc565b60405190151581526020015b60405180910390f35b61015b61032d565b60405161014a9190610fb3565b61017b610176366004610fc5565b6103bc565b6040516001600160a01b03909116815260200161014a565b6101a66101a1366004610ff7565b6103e3565b005b6101a66101b636600461101f565b6103f2565b6101a66101c936600461101f565b610480565b61013e6101dc366004610fc5565b5f908152600260205260409020546001600160a01b0316331490565b61017b610206366004610fc5565b61049f565b61021e610219366004611059565b6104a9565b60405190815260200161014a565b6101a66104ee565b6006546001600160a01b031661017b565b61015b610501565b6101a661025b366004611072565b610510565b6101a661026e3660046110bf565b61051b565b61015b610281366004610fc5565b610533565b61028e6105a4565b60405161014a919061119c565b61013e6102a93660046111de565b610667565b6101a6610694565b6101a66102c4366004610fc5565b6106ee565b6101a66102d7366004611059565b6107a1565b5f6001600160e01b031982166380ac58cd60e01b148061030c57506001600160e01b03198216635b5e139f60e01b145b8061032757506301ffc9a760e01b6001600160e01b03198316145b92915050565b60605f805461033b9061120f565b80601f01602080910402602001604051908101604052809291908181526020018280546103679061120f565b80156103b25780601f10610389576101008083540402835291602001916103b2565b820191905f5260205f20905b81548152906001019060200180831161039557829003601f168201915b5050505050905090565b5f6103c6826107de565b505f828152600460205260409020546001600160a01b0316610327565b6103ee828233610816565b5050565b6001600160a01b03821661042057604051633250574960e11b81525f60048201526024015b60405180910390fd5b5f61042c838333610823565b9050836001600160a01b0316816001600160a01b03161461047a576040516364283d7b60e01b81526001600160a01b0380861660048301526024820184905282166044820152606401610417565b50505050565b61049a83838360405180602001604052805f81525061051b565b505050565b5f610327826107de565b5f6001600160a01b0382166104d3576040516322718ad960e21b81525f6004820152602401610417565b506001600160a01b03165f9081526003602052604090205490565b6104f6610915565b6104ff5f610942565b565b60606001805461033b9061120f565b6103ee338383610993565b6105268484846103f2565b61047a3385858585610a31565b606061053e826107de565b505f61055460408051602081019091525f815290565b90505f8151116105725760405180602001604052805f81525061059d565b8061057c84610b59565b60405160200161058d92919061125e565b6040516020818303038152906040525b9392505050565b60605f6105b0336104a9565b90505f8167ffffffffffffffff8111156105cc576105cc6110ab565b6040519080825280602002602001820160405280156105f5578160200160208202803683370190505b5090505f60015b60075481101561065e57610626815f908152600260205260409020546001600160a01b0316331490565b156106565780838361063781611272565b94508151811061064957610649611296565b6020026020010181815250505b6001016105fc565b50909392505050565b6001600160a01b039182165f90815260056020908152604080832093909416825291909152205460ff1690565b6007546106a13382610be9565b60078054905f6106b083611272565b909155505060405181815233907f985d112c54c7518a49841fc37640d9ded60112ea7370ca9129c8ed33c3607bc7906020015b60405180910390a250565b61070e815f908152600260205260409020546001600160a01b0316331490565b6107665760405162461bcd60e51b8152602060048201526024808201527f596f7520617265206e6f7420746865206f776e6572206f66207468697320746960448201526318dad95d60e21b6064820152608401610417565b61076f81610c02565b60405181815233907fea2df1906aa0678464bc2a22d5ed1eefedfa34eef24e9db4a75034297414befe906020016106e3565b6107a9610915565b6001600160a01b0381166107d257604051631e4fbdf760e01b81525f6004820152602401610417565b6107db81610942565b50565b5f818152600260205260408120546001600160a01b03168061032757604051637e27328960e01b815260048101849052602401610417565b61049a8383836001610c3a565b5f828152600260205260408120546001600160a01b039081169083161561084f5761084f818486610d3e565b6001600160a01b038116156108895761086a5f855f5f610c3a565b6001600160a01b0381165f90815260036020526040902080545f190190555b6001600160a01b038516156108b7576001600160a01b0385165f908152600360205260409020805460010190555b5f8481526002602052604080822080546001600160a01b0319166001600160a01b0389811691821790925591518793918516917fddf252ad1be2c89b69c2b068fc378daa952ba7f163c4a11628f55a4df523b3ef91a4949350505050565b6006546001600160a01b031633146104ff5760405163118cdaa760e01b8152336004820152602401610417565b600680546001600160a01b038381166001600160a01b0319831681179093556040519116919082907f8be0079c531659141344cd1fd0a4f28419497f9722a3daafe3b4186f6b6457e0905f90a35050565b6001600160a01b0382166109c557604051630b61174360e31b81526001600160a01b0383166004820152602401610417565b6001600160a01b038381165f81815260056020908152604080832094871680845294825291829020805460ff191686151590811790915591519182527f17307eab39ab6107e8899845ad3d59bd9653f200f220920489ca2b5937696c31910160405180910390a3505050565b6001600160a01b0383163b15610b5257604051630a85bd0160e11b81526001600160a01b0384169063150b7a0290610a739088908890879087906004016112aa565b6020604051808303815f875af1925050508015610aad575060408051601f3d908101601f19168201909252610aaa918101906112e6565b60015b610b14573d808015610ada576040519150601f19603f3d011682016040523d82523d5f602084013e610adf565b606091505b5080515f03610b0c57604051633250574960e11b81526001600160a01b0385166004820152602401610417565b805181602001fd5b6001600160e01b03198116630a85bd0160e11b14610b5057604051633250574960e11b81526001600160a01b0385166004820152602401610417565b505b5050505050565b60605f610b6583610da2565b60010190505f8167ffffffffffffffff811115610b8457610b846110ab565b6040519080825280601f01601f191660200182016040528015610bae576020820181803683370190505b5090508181016020015b5f19016f181899199a1a9b1b9c1cb0b131b232b360811b600a86061a8153600a8504945084610bb857509392505050565b6103ee828260405180602001604052805f815250610e79565b5f610c0e5f835f610823565b90506001600160a01b0381166103ee57604051637e27328960e01b815260048101839052602401610417565b8080610c4e57506001600160a01b03821615155b15610d0f575f610c5d846107de565b90506001600160a01b03831615801590610c895750826001600160a01b0316816001600160a01b031614155b8015610c9c5750610c9a8184610667565b155b15610cc55760405163a9fbf51f60e01b81526001600160a01b0384166004820152602401610417565b8115610d0d5783856001600160a01b0316826001600160a01b03167f8c5be1e5ebec7d5bd14f71427d1e84f3dd0314c0f7b2291e5b200ac8c7c3b92560405160405180910390a45b505b50505f90815260046020526040902080546001600160a01b0319166001600160a01b0392909216919091179055565b610d49838383610e90565b61049a576001600160a01b038316610d7757604051637e27328960e01b815260048101829052602401610417565b60405163177e802f60e01b81526001600160a01b038316600482015260248101829052604401610417565b5f8072184f03e93ff9f4daa797ed6e38ed64bf6a1f0160401b8310610de05772184f03e93ff9f4daa797ed6e38ed64bf6a1f0160401b830492506040015b6d04ee2d6d415b85acef81000000008310610e0c576d04ee2d6d415b85acef8100000000830492506020015b662386f26fc100008310610e2a57662386f26fc10000830492506010015b6305f5e1008310610e42576305f5e100830492506008015b6127108310610e5657612710830492506004015b60648310610e68576064830492506002015b600a83106103275760010192915050565b610e838383610ef4565b61049a335f858585610a31565b5f6001600160a01b03831615801590610eec5750826001600160a01b0316846001600160a01b03161480610ec95750610ec98484610667565b80610eec57505f828152600460205260409020546001600160a01b038481169116145b949350505050565b6001600160a01b038216610f1d57604051633250574960e11b81525f6004820152602401610417565b5f610f2983835f610823565b90506001600160a01b0381161561049a576040516339e3563760e11b81525f6004820152602401610417565b6001600160e01b0319811681146107db575f5ffd5b5f60208284031215610f7a575f5ffd5b813561059d81610f55565b5f81518084528060208401602086015e5f602082860101526020601f19601f83011685010191505092915050565b602081525f61059d6020830184610f85565b5f60208284031215610fd5575f5ffd5b5035919050565b80356001600160a01b0381168114610ff2575f5ffd5b919050565b5f5f60408385031215611008575f5ffd5b61101183610fdc565b946020939093013593505050565b5f5f5f60608486031215611031575f5ffd5b61103a84610fdc565b925061104860208501610fdc565b929592945050506040919091013590565b5f60208284031215611069575f5ffd5b61059d82610fdc565b5f5f60408385031215611083575f5ffd5b61108c83610fdc565b9150602083013580151581146110a0575f5ffd5b809150509250929050565b634e487b7160e01b5f52604160045260245ffd5b5f5f5f5f608085870312156110d2575f5ffd5b6110db85610fdc565b93506110e960208601610fdc565b925060408501359150606085013567ffffffffffffffff81111561110b575f5ffd5b8501601f8101871361111b575f5ffd5b803567ffffffffffffffff811115611135576111356110ab565b604051601f8201601f19908116603f0116810167ffffffffffffffff81118282101715611164576111646110ab565b60405281815282820160200189101561117b575f5ffd5b816020840160208301375f6020838301015280935050505092959194509250565b602080825282518282018190525f918401906040840190835b818110156111d35783518352602093840193909201916001016111b5565b509095945050505050565b5f5f604083850312156111ef575f5ffd5b6111f883610fdc565b915061120660208401610fdc565b90509250929050565b600181811c9082168061122357607f821691505b60208210810361124157634e487b7160e01b5f52602260045260245ffd5b50919050565b5f81518060208401855e5f93019283525090919050565b5f610eec61126c8386611247565b84611247565b5f6001820161128f57634e487b7160e01b5f52601160045260245ffd5b5060010190565b634e487b7160e01b5f52603260045260245ffd5b6001600160a01b03858116825284166020820152604081018390526080606082018190525f906112dc90830184610f85565b9695505050505050565b5f602082840312156112f6575f5ffd5b815161059d81610f5556fea2646970667358221220a3f42cab27fef68766970454af159d013c03ac7cedc44a6cfc57090169dc892f64736f6c634300081c0033","linkReferences":{}},"methodIdentifiers":{"approve(address,uint256)":"095ea7b3","balanceOf(address)":"70a08231","buyTicket()":"edca914c","cancelTicket(uint256)":"ee355b1f","getApproved(uint256)":"081812fc","getMyTickets()":"e1d10d85","isApprovedForAll(address,address)":"e985e9c5","isMyTicket(uint256)":"54b7ba0c","name()":"06fdde03","owner()":"8da5cb5b","ownerOf(uint256)":"6352211e","renounceOwnership()":"715018a6","safeTransferFrom(address,address,uint256)":"42842e0e","safeTransferFrom(address,address,uint256,bytes)":"b88d4fde","setApprovalForAll(address,bool)":"a22cb465","supportsInterface(bytes4)":"01ffc9a7","symbol()":"95d89b41","tokenURI(uint256)":"c87b56dd","transferFrom(address,address,uint256)":"23b872dd","transferOwnership(address)":"f2fde38b"},"id":35}