{
  "abi": [
    {
      "type": "constructor",
      "inputs": [],
      "stateMutability": "nonpayable"
    },
    {
      "type": "function",
      "name": "approve",
      "inputs": [
        {
          "name": "to",
          "type": "address",
          "internalType": "address"
        },
        {
          "name": "tokenId",
          "type": "uint256",
          "internalType": "uint256"
        }
      ],
      "outputs": [],
      "stateMutability": "nonpayable"
    },
    {
      "type": "function",
      "name": "balanceOf",
      "inputs": [
        {
          "name": "owner",
          "type": "address",
          "internalType": "address"
        }
      ],
      "outputs": [
        {
          "name": "",
          "type": "uint256",
          "internalType": "uint256"
        }
      ],
      "stateMutability": "view"
    },
    {
      "type": "function",
      "name": "buyTicket",
      "inputs": [],
      "outputs": [],
      "stateMutability": "nonpayable"
    },
    {
      "type": "function",
      "name": "cancelTicket",
      "inputs": [
        {
          "name": "tokenId",
          "type": "uint256",
          "internalType": "uint256"
        }
      ],
      "outputs": [],
      "stateMutability": "nonpayable"
    },
    {
      "type": "function",
      "name": "getApproved",
      "inputs": [
        {
          "name": "tokenId",
          "type": "uint256",
          "internalType": "uint256"
        }
      ],
      "outputs": [
        {
          "name": "",
          "type": "address",
          "internalType": "address"
        }
      ],
      "stateMutability": "view"
    },
    {
      "type": "function",
      "name": "getMyTickets",
      "inputs": [],
      "outputs": [
        {
          "name": "",
          "type": "uint256[]",
          "internalType": "uint256[]"
        }
      ],
      "stateMutability": "view"
    },
    {
      "type": "function",
      "name": "isApprovedForAll",
      "inputs": [
        {
          "name": "owner",
          "type": "address",
          "internalType": "address"
        },
        {
          "name": "operator",
          "type": "address",
          "internalType": "address"
        }
      ],
      "outputs": [
        {
          "name": "",
          "type": "bool",
          "internalType": "bool"
        }
      ],
      "stateMutability": "view"
    },
    {
      "type": "function",
      "name": "isMyTicket",
      "inputs": [
        {
          "name": "tokenId",
          "type": "uint256",
          "internalType": "uint256"
        }
      ],
      "outputs": [
        {
          "name": "",
          "type": "bool",
          "internalType": "bool"
        }
      ],
      "stateMutability": "view"
    },
    {
      "type": "function",
      "name": "name",
      "inputs": [],
      "outputs": [
        {
          "name": "",
          "type": "string",
          "internalType": "string"
        }
      ],
      "stateMutability": "view"
    },
    {
      "type": "function",
      "name": "owner",
      "inputs": [],
      "outputs": [
        {
          "name": "",
          "type": "address",
          "internalType": "address"
        }
      ],
      "stateMutability": "view"
    },
    {
      "type": "function",
      "name": "ownerOf",
      "inputs": [
        {
          "name": "tokenId",
          "type": "uint256",
          "internalType": "uint256"
        }
      ],
      "outputs": [
        {
          "name": "",
          "type": "address",
          "internalType": "address"
        }
      ],
      "stateMutability": "view"
    },
    {
      "type": "function",
      "name": "renounceOwnership",
      "inputs": [],
      "outputs": [],
      "stateMutability": "nonpayable"
    },
    {
      "type": "function",
      "name": "safeTransferFrom",
      "inputs": [
        {
          "name": "from",
          "type": "address",
          "internalType": "address"
        },
        {
          "name": "to",
          "type": "address",
          "internalType": "address"
        },
        {
          "name": "tokenId",
          "type": "uint256",
          "internalType": "uint256"
        }
      ],
      "outputs": [],
      "stateMutability": "nonpayable"
    },
    {
      "type": "function",
      "name": "safeTransferFrom",
      "inputs": [
        {
          "name": "from",
          "type": "address",
          "internalType": "address"
        },
        {
          "name": "to",
          "type": "address",
          "internalType": "address"
        },
        {
          "name": "tokenId",
          "type": "uint256",
          "internalType": "uint256"
        },
        {
          "name": "data",
          "type": "bytes",
          "internalType": "bytes"
        }
      ],
      "outputs": [],
      "stateMutability": "nonpayable"
    },
    {
      "type": "function",
      "name": "setApprovalForAll",
      "inputs": [
        {
          "name": "operator",
          "type": "address",
          "internalType": "address"
        },
        {
          "name": "approved",
          "type": "bool",
          "internalType": "bool"
        }
      ],
      "outputs": [],
      "stateMutability": "nonpayable"
    },
    {
      "type": "function",
      "name": "supportsInterface",
      "inputs": [
        {
          "name": "interfaceId",
          "type": "bytes4",
          "internalType": "bytes4"
        }
      ],
      "outputs": [
        {
          "name": "",
          "type": "bool",
          "internalType": "bool"
        }
      ],
      "stateMutability": "view"
    },
    {
      "type": "function",
      "name": "symbol",
      "inputs": [],
      "outputs": [
        {
          "name": "",
          "type": "string",
          "internalType": "string"
        }
      ],
      "stateMutability": "view"
    },
    {
      "type": "function",
      "name": "tokenByIndex",
      "inputs": [
        {
          "name": "index",
          "type": "uint256",
          "internalType": "uint256"
        }
      ],
      "outputs": [
        {
          "name": "",
          "type": "uint256",
          "internalType": "uint256"
        }
      ],
      "stateMutability": "view"
    },
    {
      "type": "function",
      "name": "tokenOfOwnerByIndex",
      "inputs": [
        {
          "name": "owner",
          "type": "address",
          "internalType": "address"
        },
        {
          "name": "index",
          "type": "uint256",
          "internalType": "uint256"
        }
      ],
      "outputs": [
        {
          "name": "",
          "type": "uint256",
          "internalType": "uint256"
        }
      ],
      "stateMutability": "view"
    },
    {
      "type": "function",
      "name": "tokenURI",
      "inputs": [
        {
          "name": "tokenId",
          "type": "uint256",
          "internalType": "uint256"
        }
      ],
      "outputs": [
        {
          "name": "",
          "type": "string",
          "internalType": "string"
        }
      ],
      "stateMutability": "view"
    },
    {
      "type": "function",
      "name": "totalSupply",
      "inputs": [],
      "outputs": [
        {
          "name": "",
          "type": "uint256",
          "internalType": "uint256"
        }
      ],
      "stateMutability": "view"
    },
    {
      "type": "function",
      "name": "transferFrom",
      "inputs": [
        {
          "name": "from",
          "type": "address",
          "internalType": "address"
        },
        {
          "name": "to",
          "type": "address",
          "internalType": "address"
        },
        {
          "name": "tokenId",
          "type": "uint256",
          "internalType": "uint256"
        }
      ],
      "outputs": [],
      "stateMutability": "nonpayable"
    },
    {
      "type": "function",
      "name": "transferOwnership",
      "inputs": [
        {
          "name": "newOwner",
          "type": "address",
          "internalType": "address"
        }
      ],
      "outputs": [],
      "stateMutability": "nonpayable"
    },
    {
      "type": "event",
      "name": "Approval",
      "inputs": [
        {
          "name": "owner",
          "type": "address",
          "indexed": true,
          "internalType": "address"
        },
        {
          "name": "approved",
          "type": "address",
          "indexed": true,
          "internalType": "address"
        },
        {
          "name": "tokenId",
          "type": "uint256",
          "indexed": true,
          "internalType": "uint256"
        }
      ],
      "anonymous": false
    },
    {
      "type": "event",
      "name": "ApprovalForAll",
      "inputs": [
        {
          "name": "owner",
          "type": "address",
          "indexed": true,
          "internalType": "address"
        },
        {
          "name": "operator",
          "type": "address",
          "indexed": true,
          "internalType": "address"
        },
        {
          "name": "approved",
          "type": "bool",
          "indexed": false,
          "internalType": "bool"
        }
      ],
      "anonymous": false
    },
    {
      "type": "event",
      "name": "OwnershipTransferred",
      "inputs": [
        {
          "name": "previousOwner",
          "type": "address",
          "indexed": true,
          "internalType": "address"
        },
        {
          "name": "newOwner",
          "type": "address",
          "indexed": true,
          "internalType": "address"
        }
      ],
      "anonymous": false
    },
    {
      "type": "event",
      "name": "TicketBuyed",
      "inputs": [
        {
          "name": "user",
          "type": "address",
          "indexed": true,
          "internalType": "address"
        },
        {
          "name": "tokenId",
          "type": "uint256",
          "indexed": false,
          "internalType": "uint256"
        }
      ],
      "anonymous": false
    },
    {
      "type": "event",
      "name": "TicketCanceled",
      "inputs": [
        {
          "name": "user",
          "type": "address",
          "indexed": true,
          "internalType": "address"
        },
        {
          "name": "tokenId",
          "type": "uint256",
          "indexed": false,
          "internalType": "uint256"
        }
      ],
      "anonymous": false
    },
    {
      "type": "event",
      "name": "Transfer",
      "inputs": [
        {
          "name": "from",
          "type": "address",
          "indexed": true,
          "internalType": "address"
        },
        {
          "name": "to",
          "type": "address",
          "indexed": true,
          "internalType": "address"
        },
        {
          "name": "tokenId",
          "type": "uint256",
          "indexed": true,
          "internalType": "uint256"
        }
      ],
      "anonymous": false
    },
    {
      "type": "error",
      "name": "ERC721EnumerableForbiddenBatchMint",
      "inputs": []
    },
    {
      "type": "error",
      "name": "ERC721IncorrectOwner",
      "inputs": [
        {
          "name": "sender",
          "type": "address",
          "internalType": "address"
        },
        {
          "name": "tokenId",
          "type": "uint256",
          "internalType": "uint256"
        },
        {
          "name": "owner",
          "type": "address",
          "internalType": "address"
        }
      ]
    },
    {
      "type": "error",
      "name": "ERC721InsufficientApproval",
      "inputs": [
        {
          "name": "operator",
          "type": "address",
          "internalType": "address"
        },
        {
          "name": "tokenId",
          "type": "uint256",
          "internalType": "uint256"
        }
      ]
    },
    {
      "type": "error",
      "name": "ERC721InvalidApprover",
      "inputs": [
        {
          "name": "approver",
          "type": "address",
          "internalType": "address"
        }
      ]
    },
    {
      "type": "error",
      "name": "ERC721InvalidOperator",
      "inputs": [
        {
          "name": "operator",
          "type": "address",
          "internalType": "address"
        }
      ]
    },
    {
      "type": "error",
      "name": "ERC721InvalidOwner",
      "inputs": [
        {
          "name": "owner",
          "type": "address",
          "internalType": "address"
        }
      ]
    },
    {
      "type": "error",
      "name": "ERC721InvalidReceiver",
      "inputs": [
        {
          "name": "receiver",
          "type": "address",
          "internalType": "address"
        }
      ]
    },
    {
      "type": "error",
      "name": "ERC721InvalidSender",
      "inputs": [
        {
          "name": "sender",
          "type": "address",
          "internalType": "address"
        }
      ]
    },
    {
      "type": "error",
      "name": "ERC721NonexistentToken",
      "inputs": [
        {
          "name": "tokenId",
          "type": "uint256",
          "internalType": "uint256"
        }
      ]
    },
    {
      "type": "error",
      "name": "ERC721OutOfBoundsIndex",
      "inputs": [
        {
          "name": "owner",
          "type": "address",
          "internalType": "address"
        },
        {
          "name": "index",
          "type": "uint256",
          "internalType": "uint256"
        }
      ]
    },
    {
      "type": "error",
      "name": "OwnableInvalidOwner",
      "inputs": [
        {
          "name": "owner",
          "type": "address",
          "internalType": "address"
        }
      ]
    },
    {
      "type": "error",
      "name": "OwnableUnauthorizedAccount",
      "inputs": [
        {
          "name": "account",
          "type": "address",
          "internalType": "address"
        }
      ]
    }
  ],
  "bytecode": {
    "object": "0x608060405234801561000f575f5ffd5b503360405180604001604052806009815260200168151a58dad95d13919560ba1b815250604051806040016040528060048152602001631513919560e21b815250815f908161005e9190610198565b50600161006b8282610198565b5050506001600160a01b03811661009b57604051631e4fbdf760e01b81525f600482015260240160405180910390fd5b6100a4816100af565b506001600b55610252565b600a80546001600160a01b038381166001600160a01b0319831681179093556040519116919082907f8be0079c531659141344cd1fd0a4f28419497f9722a3daafe3b4186f6b6457e0905f90a35050565b634e487b7160e01b5f52604160045260245ffd5b600181811c9082168061012857607f821691505b60208210810361014657634e487b7160e01b5f52602260045260245ffd5b50919050565b601f82111561019357805f5260205f20601f840160051c810160208510156101715750805b601f840160051c820191505b81811015610190575f815560010161017d565b50505b505050565b81516001600160401b038111156101b1576101b1610100565b6101c5816101bf8454610114565b8461014c565b6020601f8211600181146101f7575f83156101e05750848201515b5f19600385901b1c1916600184901b178455610190565b5f84815260208120601f198516915b828110156102265787850151825560209485019460019092019101610206565b508482101561024357868401515f19600387901b60f8161c191681555b50505050600190811b01905550565b6116918061025f5f395ff3fe608060405234801561000f575f5ffd5b5060043610610148575f3560e01c806370a08231116100bf578063c87b56dd11610079578063c87b56dd146102a7578063e1d10d85146102ba578063e985e9c5146102cf578063edca914c146102e2578063ee355b1f146102ea578063f2fde38b146102fd575f5ffd5b806370a082311461024d578063715018a6146102605780638da5cb5b1461026857806395d89b4114610279578063a22cb46514610281578063b88d4fde14610294575f5ffd5b806323b872dd1161011057806323b872dd146101db5780632f745c59146101ee57806342842e0e146102015780634f6ccce71461021457806354b7ba0c146102275780636352211e1461023a575f5ffd5b806301ffc9a71461014c57806306fdde0314610174578063081812fc14610189578063095ea7b3146101b457806318160ddd146101c9575b5f5ffd5b61015f61015a366004611295565b610310565b60405190151581526020015b60405180910390f35b61017c61033a565b60405161016b91906112de565b61019c6101973660046112f0565b6103c9565b6040516001600160a01b03909116815260200161016b565b6101c76101c2366004611322565b6103f0565b005b6008545b60405190815260200161016b565b6101c76101e936600461134a565b6103ff565b6101cd6101fc366004611322565b61048d565b6101c761020f36600461134a565b6104f0565b6101cd6102223660046112f0565b61050f565b61015f6102353660046112f0565b610564565b61019c6102483660046112f0565b61057f565b6101cd61025b366004611384565b610589565b6101c76105ce565b600a546001600160a01b031661019c565b61017c6105e1565b6101c761028f36600461139d565b6105f0565b6101c76102a23660046113ea565b6105fb565b61017c6102b53660046112f0565b610613565b6102c2610684565b60405161016b91906114c7565b61015f6102dd366004611509565b610718565b6101c7610745565b6101c76102f83660046112f0565b61079f565b6101c761030b366004611384565b61083b565b5f6001600160e01b0319821663780e9d6360e01b1480610334575061033482610878565b92915050565b60605f80546103489061153a565b80601f01602080910402602001604051908101604052809291908181526020018280546103749061153a565b80156103bf5780601f10610396576101008083540402835291602001916103bf565b820191905f5260205f20905b8154815290600101906020018083116103a257829003601f168201915b5050505050905090565b5f6103d3826108c7565b505f828152600460205260409020546001600160a01b0316610334565b6103fb8282336108ff565b5050565b6001600160a01b03821661042d57604051633250574960e11b81525f60048201526024015b60405180910390fd5b5f61043983833361090c565b9050836001600160a01b0316816001600160a01b031614610487576040516364283d7b60e01b81526001600160a01b0380861660048301526024820184905282166044820152606401610424565b50505050565b5f61049783610589565b82106104c85760405163295f44f760e21b81526001600160a01b038416600482015260248101839052604401610424565b506001600160a01b03919091165f908152600660209081526040808320938352929052205490565b61050a83838360405180602001604052805f8152506105fb565b505050565b5f61051960085490565b82106105415760405163295f44f760e21b81525f600482015260248101839052604401610424565b6008828154811061055457610554611572565b905f5260205f2001549050919050565b5f3361056f8361057f565b6001600160a01b03161492915050565b5f610334826108c7565b5f6001600160a01b0382166105b3576040516322718ad960e21b81525f6004820152602401610424565b506001600160a01b03165f9081526003602052604090205490565b6105d66109df565b6105df5f610a0c565b565b6060600180546103489061153a565b6103fb338383610a5d565b6106068484846103ff565b6104873385858585610afb565b606061061e826108c7565b505f61063460408051602081019091525f815290565b90505f8151116106525760405180602001604052805f81525061067d565b8061065c84610c23565b60405160200161066d92919061159d565b6040516020818303038152906040525b9392505050565b60605f61069033610589565b90505f8167ffffffffffffffff8111156106ac576106ac6113d6565b6040519080825280602002602001820160405280156106d5578160200160208202803683370190505b5090505f5b82811015610711576106ec338261048d565b8282815181106106fe576106fe611572565b60209081029190910101526001016106da565b5092915050565b6001600160a01b039182165f90815260056020908152604080832093909416825291909152205460ff1690565b600b546107523382610cb3565b600b8054905f610761836115c5565b909155505060405181815233907f0cb34a2630e64e1fc817c7adf2bfd7d71ce674e81d8e89613b17518dc9eb96e3906020015b60405180910390a250565b6107a881610564565b6108005760405162461bcd60e51b8152602060048201526024808201527f596f7520617265206e6f7420746865206f776e6572206f66207468697320746960448201526318dad95d60e21b6064820152608401610424565b61080981610ccc565b60405181815233907fab1705c18fc414d6b0f882cc5a2b978d3b6d7a1da35d3fa0b7dc976972da6c3c90602001610794565b6108436109df565b6001600160a01b03811661086c57604051631e4fbdf760e01b81525f6004820152602401610424565b61087581610a0c565b50565b5f6001600160e01b031982166380ac58cd60e01b14806108a857506001600160e01b03198216635b5e139f60e01b145b8061033457506301ffc9a760e01b6001600160e01b0319831614610334565b5f818152600260205260408120546001600160a01b03168061033457604051637e27328960e01b815260048101849052602401610424565b61050a8383836001610d04565b5f5f610919858585610e08565b90506001600160a01b0381166109755761097084600880545f838152600960205260408120829055600182018355919091527ff3f7a9fe364faab93b216da50a3214154f22a0a2b415b23a84c8169e8b636ee30155565b610998565b846001600160a01b0316816001600160a01b031614610998576109988185610efa565b6001600160a01b0385166109b4576109af84610f77565b6109d7565b846001600160a01b0316816001600160a01b0316146109d7576109d7858561101e565b949350505050565b600a546001600160a01b031633146105df5760405163118cdaa760e01b8152336004820152602401610424565b600a80546001600160a01b038381166001600160a01b0319831681179093556040519116919082907f8be0079c531659141344cd1fd0a4f28419497f9722a3daafe3b4186f6b6457e0905f90a35050565b6001600160a01b038216610a8f57604051630b61174360e31b81526001600160a01b0383166004820152602401610424565b6001600160a01b038381165f81815260056020908152604080832094871680845294825291829020805460ff191686151590811790915591519182527f17307eab39ab6107e8899845ad3d59bd9653f200f220920489ca2b5937696c31910160405180910390a3505050565b6001600160a01b0383163b15610c1c57604051630a85bd0160e11b81526001600160a01b0384169063150b7a0290610b3d9088908890879087906004016115dd565b6020604051808303815f875af1925050508015610b77575060408051601f3d908101601f19168201909252610b7491810190611619565b60015b610bde573d808015610ba4576040519150601f19603f3d011682016040523d82523d5f602084013e610ba9565b606091505b5080515f03610bd657604051633250574960e11b81526001600160a01b0385166004820152602401610424565b805181602001fd5b6001600160e01b03198116630a85bd0160e11b14610c1a57604051633250574960e11b81526001600160a01b0385166004820152602401610424565b505b5050505050565b60605f610c2f8361106c565b60010190505f8167ffffffffffffffff811115610c4e57610c4e6113d6565b6040519080825280601f01601f191660200182016040528015610c78576020820181803683370190505b5090508181016020015b5f19016f181899199a1a9b1b9c1cb0b131b232b360811b600a86061a8153600a8504945084610c8257509392505050565b6103fb828260405180602001604052805f815250611143565b5f610cd85f835f61090c565b90506001600160a01b0381166103fb57604051637e27328960e01b815260048101839052602401610424565b8080610d1857506001600160a01b03821615155b15610dd9575f610d27846108c7565b90506001600160a01b03831615801590610d535750826001600160a01b0316816001600160a01b031614155b8015610d665750610d648184610718565b155b15610d8f5760405163a9fbf51f60e01b81526001600160a01b0384166004820152602401610424565b8115610dd75783856001600160a01b0316826001600160a01b03167f8c5be1e5ebec7d5bd14f71427d1e84f3dd0314c0f7b2291e5b200ac8c7c3b92560405160405180910390a45b505b50505f90815260046020526040902080546001600160a01b0319166001600160a01b0392909216919091179055565b5f828152600260205260408120546001600160a01b0390811690831615610e3457610e3481848661115a565b6001600160a01b03811615610e6e57610e4f5f855f5f610d04565b6001600160a01b0381165f90815260036020526040902080545f190190555b6001600160a01b03851615610e9c576001600160a01b0385165f908152600360205260409020805460010190555b5f8481526002602052604080822080546001600160a01b0319166001600160a01b0389811691821790925591518793918516917fddf252ad1be2c89b69c2b068fc378daa952ba7f163c4a11628f55a4df523b3ef91a4949350505050565b5f610f0483610589565b5f838152600760209081526040808320546001600160a01b0388168452600690925290912091925090818314610f59575f83815260208281526040808320548584528184208190558352600790915290208290555b5f938452600760209081526040808620869055938552525081205550565b6008545f90610f8890600190611634565b5f8381526009602052604081205460088054939450909284908110610faf57610faf611572565b905f5260205f20015490508060088381548110610fce57610fce611572565b5f91825260208083209091019290925582815260099091526040808220849055858252812055600880548061100557611005611647565b600190038181905f5260205f20015f9055905550505050565b5f600161102a84610589565b6110349190611634565b6001600160a01b039093165f908152600660209081526040808320868452825280832085905593825260079052919091209190915550565b5f8072184f03e93ff9f4daa797ed6e38ed64bf6a1f0160401b83106110aa5772184f03e93ff9f4daa797ed6e38ed64bf6a1f0160401b830492506040015b6d04ee2d6d415b85acef810000000083106110d6576d04ee2d6d415b85acef8100000000830492506020015b662386f26fc1000083106110f457662386f26fc10000830492506010015b6305f5e100831061110c576305f5e100830492506008015b612710831061112057612710830492506004015b60648310611132576064830492506002015b600a83106103345760010192915050565b61114d83836111be565b61050a335f858585610afb565b61116583838361121f565b61050a576001600160a01b03831661119357604051637e27328960e01b815260048101829052602401610424565b60405163177e802f60e01b81526001600160a01b038316600482015260248101829052604401610424565b6001600160a01b0382166111e757604051633250574960e11b81525f6004820152602401610424565b5f6111f383835f61090c565b90506001600160a01b0381161561050a576040516339e3563760e11b81525f6004820152602401610424565b5f6001600160a01b038316158015906109d75750826001600160a01b0316846001600160a01b0316148061125857506112588484610718565b806109d75750505f908152600460205260409020546001600160a01b03908116911614919050565b6001600160e01b031981168114610875575f5ffd5b5f602082840312156112a5575f5ffd5b813561067d81611280565b5f81518084528060208401602086015e5f602082860101526020601f19601f83011685010191505092915050565b602081525f61067d60208301846112b0565b5f60208284031215611300575f5ffd5b5035919050565b80356001600160a01b038116811461131d575f5ffd5b919050565b5f5f60408385031215611333575f5ffd5b61133c83611307565b946020939093013593505050565b5f5f5f6060848603121561135c575f5ffd5b61136584611307565b925061137360208501611307565b929592945050506040919091013590565b5f60208284031215611394575f5ffd5b61067d82611307565b5f5f604083850312156113ae575f5ffd5b6113b783611307565b9150602083013580151581146113cb575f5ffd5b809150509250929050565b634e487b7160e01b5f52604160045260245ffd5b5f5f5f5f608085870312156113fd575f5ffd5b61140685611307565b935061141460208601611307565b925060408501359150606085013567ffffffffffffffff811115611436575f5ffd5b8501601f81018713611446575f5ffd5b803567ffffffffffffffff811115611460576114606113d6565b604051601f8201601f19908116603f0116810167ffffffffffffffff8111828210171561148f5761148f6113d6565b6040528181528282016020018910156114a6575f5ffd5b816020840160208301375f6020838301015280935050505092959194509250565b602080825282518282018190525f918401906040840190835b818110156114fe5783518352602093840193909201916001016114e0565b509095945050505050565b5f5f6040838503121561151a575f5ffd5b61152383611307565b915061153160208401611307565b90509250929050565b600181811c9082168061154e57607f821691505b60208210810361156c57634e487b7160e01b5f52602260045260245ffd5b50919050565b634e487b7160e01b5f52603260045260245ffd5b5f81518060208401855e5f93019283525090919050565b5f6109d76115ab8386611586565b84611586565b634e487b7160e01b5f52601160045260245ffd5b5f600182016115d6576115d66115b1565b5060010190565b6001600160a01b03858116825284166020820152604081018390526080606082018190525f9061160f908301846112b0565b9695505050505050565b5f60208284031215611629575f5ffd5b815161067d81611280565b81810381811115610334576103346115b1565b634e487b7160e01b5f52603160045260245ffdfea264697066735822122007764f40cf7d24def53a49768bef4fcf80d35d2f8d995ec3e9af2394a9abc46064736f6c634300081c0033",
    "linkReferences": {}
  },
  "methodIdentifiers": {
    "approve(address,uint256)": "095ea7b3",
    "balanceOf(address)": "70a08231",
    "buyTicket()": "edca914c",
    "cancelTicket(uint256)": "ee355b1f",
    "getApproved(uint256)": "081812fc",
    "getMyTickets()": "e1d10d85",
    "isApprovedForAll(address,address)": "e985e9c5",
    "isMyTicket(uint256)": "54b7ba0c",
    "name()": "06fdde03",
    "owner()": "8da5cb5b",
    "ownerOf(uint256)": "6352211e",
    "renounceOwnership()": "715018a6",
    "safeTransferFrom(address,address,uint256)": "42842e0e",
    "safeTransferFrom(address,address,uint256,bytes)": "b88d4fde",
    "setApprovalForAll(address,bool)": "a22cb465",
    "supportsInterface(bytes4)": "01ffc9a7",
    "symbol()": "95d89b41",
    "tokenByIndex(uint256)": "4f6ccce7",
    "tokenOfOwnerByIndex(address,uint256)": "2f745c59",
    "tokenURI(uint256)": "c87b56dd",
    "totalSupply()": "18160ddd",
    "transferFrom(address,address,uint256)": "23b872dd",
    "transferOwnership(address)": "f2fde38b"
  },
  "id": 17
}