{
  "abi": [
    {
      "type": "constructor",
      "inputs": [],
      "stateMutability": "nonpayable"
    },
    {
      "type": "function",
      "name": "approve",
      "inputs": [
        {
          "name": "approved",
          "type": "address",
          "internalType": "address"
        },
        {
          "name": "tokenId",
          "type": "uint256",
          "internalType": "uint256"
        }
      ],
      "outputs": [],
      "stateMutability": "nonpayable"
    },
    {
      "type": "function",
      "name": "balanceOf",
      "inputs": [
        {
          "name": "owner",
          "type": "address",
          "internalType": "address"
        }
      ],
      "outputs": [
        {
          "name": "",
          "type": "uint256",
          "internalType": "uint256"
        }
      ],
      "stateMutability": "view"
    },
    {
      "type": "function",
      "name": "buyTicket",
      "inputs": [],
      "outputs": [],
      "stateMutability": "nonpayable"
    },
    {
      "type": "function",
      "name": "cancelTicket",
      "inputs": [
        {
          "name": "tokenId",
          "type": "uint256",
          "internalType": "uint256"
        }
      ],
      "outputs": [],
      "stateMutability": "nonpayable"
    },
    {
      "type": "function",
      "name": "getApproved",
      "inputs": [
        {
          "name": "tokenId",
          "type": "uint256",
          "internalType": "uint256"
        }
      ],
      "outputs": [
        {
          "name": "",
          "type": "address",
          "internalType": "address"
        }
      ],
      "stateMutability": "view"
    },
    {
      "type": "function",
      "name": "getMyTickets",
      "inputs": [],
      "outputs": [
        {
          "name": "",
          "type": "uint256[]",
          "internalType": "uint256[]"
        }
      ],
      "stateMutability": "view"
    },
    {
      "type": "function",
      "name": "isApprovedForAll",
      "inputs": [
        {
          "name": "owner",
          "type": "address",
          "internalType": "address"
        },
        {
          "name": "operator",
          "type": "address",
          "internalType": "address"
        }
      ],
      "outputs": [
        {
          "name": "",
          "type": "bool",
          "internalType": "bool"
        }
      ],
      "stateMutability": "view"
    },
    {
      "type": "function",
      "name": "isMyTicket",
      "inputs": [
        {
          "name": "tokenId",
          "type": "uint256",
          "internalType": "uint256"
        }
      ],
      "outputs": [
        {
          "name": "",
          "type": "bool",
          "internalType": "bool"
        }
      ],
      "stateMutability": "view"
    },
    {
      "type": "function",
      "name": "locked",
      "inputs": [
        {
          "name": "tokenId",
          "type": "uint256",
          "internalType": "uint256"
        }
      ],
      "outputs": [
        {
          "name": "",
          "type": "bool",
          "internalType": "bool"
        }
      ],
      "stateMutability": "view"
    },
    {
      "type": "function",
      "name": "name",
      "inputs": [],
      "outputs": [
        {
          "name": "",
          "type": "string",
          "internalType": "string"
        }
      ],
      "stateMutability": "view"
    },
    {
      "type": "function",
      "name": "ownerOf",
      "inputs": [
        {
          "name": "tokenId",
          "type": "uint256",
          "internalType": "uint256"
        }
      ],
      "outputs": [
        {
          "name": "",
          "type": "address",
          "internalType": "address"
        }
      ],
      "stateMutability": "view"
    },
    {
      "type": "function",
      "name": "safeTransferFrom",
      "inputs": [
        {
          "name": "from",
          "type": "address",
          "internalType": "address"
        },
        {
          "name": "to",
          "type": "address",
          "internalType": "address"
        },
        {
          "name": "tokenId",
          "type": "uint256",
          "internalType": "uint256"
        }
      ],
      "outputs": [],
      "stateMutability": "nonpayable"
    },
    {
      "type": "function",
      "name": "safeTransferFrom",
      "inputs": [
        {
          "name": "from",
          "type": "address",
          "internalType": "address"
        },
        {
          "name": "to",
          "type": "address",
          "internalType": "address"
        },
        {
          "name": "tokenId",
          "type": "uint256",
          "internalType": "uint256"
        },
        {
          "name": "data",
          "type": "bytes",
          "internalType": "bytes"
        }
      ],
      "outputs": [],
      "stateMutability": "nonpayable"
    },
    {
      "type": "function",
      "name": "setApprovalForAll",
      "inputs": [
        {
          "name": "operator",
          "type": "address",
          "internalType": "address"
        },
        {
          "name": "approved",
          "type": "bool",
          "internalType": "bool"
        }
      ],
      "outputs": [],
      "stateMutability": "nonpayable"
    },
    {
      "type": "function",
      "name": "supportsInterface",
      "inputs": [
        {
          "name": "interfaceId",
          "type": "bytes4",
          "internalType": "bytes4"
        }
      ],
      "outputs": [
        {
          "name": "",
          "type": "bool",
          "internalType": "bool"
        }
      ],
      "stateMutability": "view"
    },
    {
      "type": "function",
      "name": "symbol",
      "inputs": [],
      "outputs": [
        {
          "name": "",
          "type": "string",
          "internalType": "string"
        }
      ],
      "stateMutability": "view"
    },
    {
      "type": "function",
      "name": "tokenURI",
      "inputs": [
        {
          "name": "tokenId",
          "type": "uint256",
          "internalType": "uint256"
        }
      ],
      "outputs": [
        {
          "name": "",
          "type": "string",
          "internalType": "string"
        }
      ],
      "stateMutability": "view"
    },
    {
      "type": "function",
      "name": "transferFrom",
      "inputs": [
        {
          "name": "from",
          "type": "address",
          "internalType": "address"
        },
        {
          "name": "to",
          "type": "address",
          "internalType": "address"
        },
        {
          "name": "tokenId",
          "type": "uint256",
          "internalType": "uint256"
        }
      ],
      "outputs": [],
      "stateMutability": "nonpayable"
    },
    {
      "type": "event",
      "name": "Approval",
      "inputs": [
        {
          "name": "owner",
          "type": "address",
          "indexed": true,
          "internalType": "address"
        },
        {
          "name": "approved",
          "type": "address",
          "indexed": true,
          "internalType": "address"
        },
        {
          "name": "tokenId",
          "type": "uint256",
          "indexed": true,
          "internalType": "uint256"
        }
      ],
      "anonymous": false
    },
    {
      "type": "event",
      "name": "ApprovalForAll",
      "inputs": [
        {
          "name": "owner",
          "type": "address",
          "indexed": true,
          "internalType": "address"
        },
        {
          "name": "operator",
          "type": "address",
          "indexed": true,
          "internalType": "address"
        },
        {
          "name": "approved",
          "type": "bool",
          "indexed": false,
          "internalType": "bool"
        }
      ],
      "anonymous": false
    },
    {
      "type": "event",
      "name": "Locked",
      "inputs": [
        {
          "name": "tokenId",
          "type": "uint256",
          "indexed": false,
          "internalType": "uint256"
        }
      ],
      "anonymous": false
    },
    {
      "type": "event",
      "name": "TicketBought",
      "inputs": [
        {
          "name": "from",
          "type": "address",
          "indexed": true,
          "internalType": "address"
        },
        {
          "name": "tokenId",
          "type": "uint256",
          "indexed": false,
          "internalType": "uint256"
        }
      ],
      "anonymous": false
    },
    {
      "type": "event",
      "name": "TicketCancelled",
      "inputs": [
        {
          "name": "from",
          "type": "address",
          "indexed": true,
          "internalType": "address"
        },
        {
          "name": "tokenId",
          "type": "uint256",
          "indexed": false,
          "internalType": "uint256"
        }
      ],
      "anonymous": false
    },
    {
      "type": "event",
      "name": "Transfer",
      "inputs": [
        {
          "name": "from",
          "type": "address",
          "indexed": true,
          "internalType": "address"
        },
        {
          "name": "to",
          "type": "address",
          "indexed": true,
          "internalType": "address"
        },
        {
          "name": "tokenId",
          "type": "uint256",
          "indexed": true,
          "internalType": "uint256"
        }
      ],
      "anonymous": false
    },
    {
      "type": "event",
      "name": "Unlocked",
      "inputs": [
        {
          "name": "tokenId",
          "type": "uint256",
          "indexed": false,
          "internalType": "uint256"
        }
      ],
      "anonymous": false
    },
    {
      "type": "error",
      "name": "ERC721IncorrectOwner",
      "inputs": [
        {
          "name": "sender",
          "type": "address",
          "internalType": "address"
        },
        {
          "name": "tokenId",
          "type": "uint256",
          "internalType": "uint256"
        },
        {
          "name": "owner",
          "type": "address",
          "internalType": "address"
        }
      ]
    },
    {
      "type": "error",
      "name": "ERC721InsufficientApproval",
      "inputs": [
        {
          "name": "operator",
          "type": "address",
          "internalType": "address"
        },
        {
          "name": "tokenId",
          "type": "uint256",
          "internalType": "uint256"
        }
      ]
    },
    {
      "type": "error",
      "name": "ERC721InvalidApprover",
      "inputs": [
        {
          "name": "approver",
          "type": "address",
          "internalType": "address"
        }
      ]
    },
    {
      "type": "error",
      "name": "ERC721InvalidOperator",
      "inputs": [
        {
          "name": "operator",
          "type": "address",
          "internalType": "address"
        }
      ]
    },
    {
      "type": "error",
      "name": "ERC721InvalidOwner",
      "inputs": [
        {
          "name": "owner",
          "type": "address",
          "internalType": "address"
        }
      ]
    },
    {
      "type": "error",
      "name": "ERC721InvalidReceiver",
      "inputs": [
        {
          "name": "receiver",
          "type": "address",
          "internalType": "address"
        }
      ]
    },
    {
      "type": "error",
      "name": "ERC721InvalidSender",
      "inputs": [
        {
          "name": "sender",
          "type": "address",
          "internalType": "address"
        }
      ]
    },
    {
      "type": "error",
      "name": "ERC721NonexistentToken",
      "inputs": [
        {
          "name": "tokenId",
          "type": "uint256",
          "internalType": "uint256"
        }
      ]
    },
    {
      "type": "error",
      "name": "ErrLocked",
      "inputs": []
    },
    {
      "type": "error",
      "name": "ErrNotFound",
      "inputs": []
    }
  ],
  "bytecode": {
    "object": "0x608060405234801561000f575f5ffd5b5060405180604001604052806009815260200168151a58dad95d14d09560ba1b815250604051806040016040528060048152602001631514d09560e21b815250815f908161005d919061011e565b50600161006a828261011e565b5050600160068190556007805460ff19169091179055506101d8565b634e487b7160e01b5f52604160045260245ffd5b600181811c908216806100ae57607f821691505b6020821081036100cc57634e487b7160e01b5f52602260045260245ffd5b50919050565b601f82111561011957805f5260205f20601f840160051c810160208510156100f75750805b601f840160051c820191505b81811015610116575f8155600101610103565b50505b505050565b81516001600160401b0381111561013757610137610086565b61014b81610145845461009a565b846100d2565b6020601f82116001811461017d575f83156101665750848201515b5f19600385901b1c1916600184901b178455610116565b5f84815260208120601f198516915b828110156101ac578785015182556020948501946001909201910161018c565b50848210156101c957868401515f19600387901b60f8161c191681555b50505050600190811b01905550565b61135f806101e55f395ff3fe608060405234801561000f575f5ffd5b5060043610610111575f3560e01c806395d89b411161009e578063c87b56dd1161006e578063c87b56dd14610257578063e1d10d851461026a578063e985e9c51461027f578063edca914c14610292578063ee355b1f1461029a575f5ffd5b806395d89b4114610216578063a22cb4651461021e578063b45a3c0e14610231578063b88d4fde14610244575f5ffd5b806323b872dd116100e457806323b872dd1461019257806342842e0e146101a557806354b7ba0c146101b85780636352211e146101e257806370a08231146101f5575f5ffd5b806301ffc9a71461011557806306fdde031461013d578063081812fc14610152578063095ea7b31461017d575b5f5ffd5b610128610123366004610f92565b6102ad565b60405190151581526020015b60405180910390f35b6101456102d7565b6040516101349190610fdb565b610165610160366004610fed565b610366565b6040516001600160a01b039091168152602001610134565b61019061018b36600461101f565b61038d565b005b6101906101a0366004611047565b6103bf565b6101906101b3366004611047565b6103f3565b6101286101c6366004610fed565b5f908152600260205260409020546001600160a01b0316331490565b6101656101f0366004610fed565b61040d565b610208610203366004611081565b610417565b604051908152602001610134565b610145610461565b61019061022c36600461109a565b610470565b61012861023f366004610fed565b61049e565b6101906102523660046110e7565b6104dd565b610145610265366004610fed565b610513565b610272610584565b60405161013491906111c4565b61012861028d366004611206565b610647565b610190610674565b6101906102a8366004610fed565b6106ce565b5f6001600160e01b03198216635a2d1e0760e11b14806102d157506102d182610781565b92915050565b60605f80546102e590611237565b80601f016020809104026020016040519081016040528092919081815260200182805461031190611237565b801561035c5780601f106103335761010080835404028352916020019161035c565b820191905f5260205f20905b81548152906001019060200180831161033f57829003601f168201915b5050505050905090565b5f610370826107d0565b505f828152600460205260409020546001600160a01b03166102d1565b60075460ff16156103b15760405163bd291a9560e01b815260040160405180910390fd5b6103bb8282610808565b5050565b60075460ff16156103e35760405163bd291a9560e01b815260040160405180910390fd5b6103ee838383610813565b505050565b6103ee83838360405180602001604052805f8152506104dd565b5f6102d1826107d0565b5f6001600160a01b038216610446576040516322718ad960e21b81525f60048201526024015b60405180910390fd5b506001600160a01b03165f9081526003602052604090205490565b6060600180546102e590611237565b60075460ff16156104945760405163bd291a9560e01b815260040160405180910390fd5b6103bb8282610896565b5f818152600260205260408120546001600160a01b03166104d25760405163ae9a63f560e01b815260040160405180910390fd5b505060075460ff1690565b60075460ff16156105015760405163bd291a9560e01b815260040160405180910390fd5b61050d848484846108a1565b50505050565b606061051e826107d0565b505f61053460408051602081019091525f815290565b90505f8151116105525760405180602001604052805f81525061057d565b8061055c846108b9565b60405160200161056d929190611286565b6040516020818303038152906040525b9392505050565b60605f61059033610417565b90505f8167ffffffffffffffff8111156105ac576105ac6110d3565b6040519080825280602002602001820160405280156105d5578160200160208202803683370190505b5090505f60015b60065481101561063e57610606815f908152600260205260409020546001600160a01b0316331490565b15610636578083836106178161129a565b945081518110610629576106296112be565b6020026020010181815250505b6001016105dc565b50909392505050565b6001600160a01b039182165f90815260056020908152604080832093909416825291909152205460ff1690565b6006546106813382610949565b60068054905f6106908361129a565b909155505060405181815233907f985d112c54c7518a49841fc37640d9ded60112ea7370ca9129c8ed33c3607bc7906020015b60405180910390a250565b6106ee815f908152600260205260409020546001600160a01b0316331490565b6107465760405162461bcd60e51b8152602060048201526024808201527f596f7520617265206e6f7420746865206f776e6572206f66207468697320746960448201526318dad95d60e21b606482015260840161043d565b61074f81610962565b60405181815233907fea2df1906aa0678464bc2a22d5ed1eefedfa34eef24e9db4a75034297414befe906020016106c3565b5f6001600160e01b031982166380ac58cd60e01b14806107b157506001600160e01b03198216635b5e139f60e01b145b806102d157506301ffc9a760e01b6001600160e01b03198316146102d1565b5f818152600260205260408120546001600160a01b0316806102d157604051637e27328960e01b81526004810184905260240161043d565b6103bb82823361099a565b6001600160a01b03821661083c57604051633250574960e11b81525f600482015260240161043d565b5f6108488383336109a7565b9050836001600160a01b0316816001600160a01b03161461050d576040516364283d7b60e01b81526001600160a01b038086166004830152602482018490528216604482015260640161043d565b6103bb338383610a99565b6108ac8484846103bf565b61050d3385858585610b37565b60605f6108c583610c5f565b60010190505f8167ffffffffffffffff8111156108e4576108e46110d3565b6040519080825280601f01601f19166020018201604052801561090e576020820181803683370190505b5090508181016020015b5f19016f181899199a1a9b1b9c1cb0b131b232b360811b600a86061a8153600a850494508461091857509392505050565b6103bb828260405180602001604052805f815250610d36565b5f61096e5f835f6109a7565b90506001600160a01b0381166103bb57604051637e27328960e01b81526004810183905260240161043d565b6103ee8383836001610d4d565b5f828152600260205260408120546001600160a01b03908116908316156109d3576109d3818486610e51565b6001600160a01b03811615610a0d576109ee5f855f5f610d4d565b6001600160a01b0381165f90815260036020526040902080545f190190555b6001600160a01b03851615610a3b576001600160a01b0385165f908152600360205260409020805460010190555b5f8481526002602052604080822080546001600160a01b0319166001600160a01b0389811691821790925591518793918516917fddf252ad1be2c89b69c2b068fc378daa952ba7f163c4a11628f55a4df523b3ef91a4949350505050565b6001600160a01b038216610acb57604051630b61174360e31b81526001600160a01b038316600482015260240161043d565b6001600160a01b038381165f81815260056020908152604080832094871680845294825291829020805460ff191686151590811790915591519182527f17307eab39ab6107e8899845ad3d59bd9653f200f220920489ca2b5937696c31910160405180910390a3505050565b6001600160a01b0383163b15610c5857604051630a85bd0160e11b81526001600160a01b0384169063150b7a0290610b799088908890879087906004016112d2565b6020604051808303815f875af1925050508015610bb3575060408051601f3d908101601f19168201909252610bb09181019061130e565b60015b610c1a573d808015610be0576040519150601f19603f3d011682016040523d82523d5f602084013e610be5565b606091505b5080515f03610c1257604051633250574960e11b81526001600160a01b038516600482015260240161043d565b805181602001fd5b6001600160e01b03198116630a85bd0160e11b14610c5657604051633250574960e11b81526001600160a01b038516600482015260240161043d565b505b5050505050565b5f8072184f03e93ff9f4daa797ed6e38ed64bf6a1f0160401b8310610c9d5772184f03e93ff9f4daa797ed6e38ed64bf6a1f0160401b830492506040015b6d04ee2d6d415b85acef81000000008310610cc9576d04ee2d6d415b85acef8100000000830492506020015b662386f26fc100008310610ce757662386f26fc10000830492506010015b6305f5e1008310610cff576305f5e100830492506008015b6127108310610d1357612710830492506004015b60648310610d25576064830492506002015b600a83106102d15760010192915050565b610d408383610eb5565b6103ee335f858585610b37565b8080610d6157506001600160a01b03821615155b15610e22575f610d70846107d0565b90506001600160a01b03831615801590610d9c5750826001600160a01b0316816001600160a01b031614155b8015610daf5750610dad8184610647565b155b15610dd85760405163a9fbf51f60e01b81526001600160a01b038416600482015260240161043d565b8115610e205783856001600160a01b0316826001600160a01b03167f8c5be1e5ebec7d5bd14f71427d1e84f3dd0314c0f7b2291e5b200ac8c7c3b92560405160405180910390a45b505b50505f90815260046020526040902080546001600160a01b0319166001600160a01b0392909216919091179055565b610e5c838383610f16565b6103ee576001600160a01b038316610e8a57604051637e27328960e01b81526004810182905260240161043d565b60405163177e802f60e01b81526001600160a01b03831660048201526024810182905260440161043d565b6001600160a01b038216610ede57604051633250574960e11b81525f600482015260240161043d565b5f610eea83835f6109a7565b90506001600160a01b038116156103ee576040516339e3563760e11b81525f600482015260240161043d565b5f6001600160a01b03831615801590610f725750826001600160a01b0316846001600160a01b03161480610f4f5750610f4f8484610647565b80610f7257505f828152600460205260409020546001600160a01b038481169116145b949350505050565b6001600160e01b031981168114610f8f575f5ffd5b50565b5f60208284031215610fa2575f5ffd5b813561057d81610f7a565b5f81518084528060208401602086015e5f602082860101526020601f19601f83011685010191505092915050565b602081525f61057d6020830184610fad565b5f60208284031215610ffd575f5ffd5b5035919050565b80356001600160a01b038116811461101a575f5ffd5b919050565b5f5f60408385031215611030575f5ffd5b61103983611004565b946020939093013593505050565b5f5f5f60608486031215611059575f5ffd5b61106284611004565b925061107060208501611004565b929592945050506040919091013590565b5f60208284031215611091575f5ffd5b61057d82611004565b5f5f604083850312156110ab575f5ffd5b6110b483611004565b9150602083013580151581146110c8575f5ffd5b809150509250929050565b634e487b7160e01b5f52604160045260245ffd5b5f5f5f5f608085870312156110fa575f5ffd5b61110385611004565b935061111160208601611004565b925060408501359150606085013567ffffffffffffffff811115611133575f5ffd5b8501601f81018713611143575f5ffd5b803567ffffffffffffffff81111561115d5761115d6110d3565b604051601f8201601f19908116603f0116810167ffffffffffffffff8111828210171561118c5761118c6110d3565b6040528181528282016020018910156111a3575f5ffd5b816020840160208301375f6020838301015280935050505092959194509250565b602080825282518282018190525f918401906040840190835b818110156111fb5783518352602093840193909201916001016111dd565b509095945050505050565b5f5f60408385031215611217575f5ffd5b61122083611004565b915061122e60208401611004565b90509250929050565b600181811c9082168061124b57607f821691505b60208210810361126957634e487b7160e01b5f52602260045260245ffd5b50919050565b5f81518060208401855e5f93019283525090919050565b5f610f72611294838661126f565b8461126f565b5f600182016112b757634e487b7160e01b5f52601160045260245ffd5b5060010190565b634e487b7160e01b5f52603260045260245ffd5b6001600160a01b03858116825284166020820152604081018390526080606082018190525f9061130490830184610fad565b9695505050505050565b5f6020828403121561131e575f5ffd5b815161057d81610f7a56fea264697066735822122086053f09364687047dafabb43e1b2cc8803d9cfca442e07c3e8c20ee7543fb3164736f6c634300081c0033",
    "linkReferences": {}
  },
  "methodIdentifiers": {
    "approve(address,uint256)": "095ea7b3",
    "balanceOf(address)": "70a08231",
    "buyTicket()": "edca914c",
    "cancelTicket(uint256)": "ee355b1f",
    "getApproved(uint256)": "081812fc",
    "getMyTickets()": "e1d10d85",
    "isApprovedForAll(address,address)": "e985e9c5",
    "isMyTicket(uint256)": "54b7ba0c",
    "locked(uint256)": "b45a3c0e",
    "name()": "06fdde03",
    "ownerOf(uint256)": "6352211e",
    "safeTransferFrom(address,address,uint256)": "42842e0e",
    "safeTransferFrom(address,address,uint256,bytes)": "b88d4fde",
    "setApprovalForAll(address,bool)": "a22cb465",
    "supportsInterface(bytes4)": "01ffc9a7",
    "symbol()": "95d89b41",
    "tokenURI(uint256)": "c87b56dd",
    "transferFrom(address,address,uint256)": "23b872dd"
  },
  "id": 43
}